:100000000C9434000C9451000C9451000C94510049
:100010000C9451000C9451000C9451000C9451001C
:100020000C9451000C9451000C9451000C9451000C
:100030000C9451000C9451000C9451000C945100FC
:100040000C9451000C9451000C9498000C94AB004B
:100050000C9451000C9451000C9451000C945100DC
:100060000C9451000C94510011241FBECFEFD8E026
:10007000DEBFCDBF11E0A0E0B1E0E6EFF8E002C0E6
:1000800005900D92A031B107D9F711E0A0E1B1E0E0
:1000900001C01D92A03DB107E1F70E9426020C9419
:1000A00079040C940000E1E7F1E0119281E0EB3C6F
:1000B000F807D9F710921201109215010895E7E19F
:1000C000F1E0119281E0E137F807D9F71092CB0106
:1000D0001092CE01109211011092CF011092CD0119
:1000E0001092140110921601089520E030E0F901F9
:1000F000EF58FE4FD901A95EBE4F8C9180832F5FD0
:100100003F4F2A35310599F708951092C50087E6CB
:100110008093C400E2ECF0E0808186608083E1ECB3
:10012000F0E0808180698083808188628083089587
:100130001F920F920FB60F9211248F938091C600D9
:100140008093CC0181E0809310018F910F900FBEBE
:100150000F901F9018951F920F920FB60F921124B7
:100160008F9381E0809313018F910F900FBE0F90BA
:100170001F9018958091CF018130D1F1813038F0F6
:10018000823009F4C8C0833009F05CC140C180915D
:100190001A01873471F480911B01873409F054C12E
:1001A00080911C01813409F04FC181E08093CF011F
:1001B0000895823561F480911B018D3409F044C1AA
:1001C00080911C01833409F03FC182E00EC08A3562
:1001D00009F03AC180911B01843409F035C1809146
:1001E0001C01813409F030C183E08093CF012AC122
:1001F0008091CD01813039F420911401222309F03E
:100200000EC15F9A92C0823041F4209114012223E2
:1002100011F45F9A97C05D9A95C0833009F4A5C028
:10022000843009F4B1C0853009F4BCC0873081F452
:100230008091CB0190E020911401821B9109895E8D
:100240009E4F62E00E94DD038091CB018E5FF5C07E
:10025000883071F48091CB0190E020911401821BD1
:100260009109895E9E4F62E041E00E9408044FC000
:10027000893061F48091CB0190E020911401821BC0
:100280009109895E9E4F65E041E0A8C08A3081F007
:100290008B3061F48091CB0190E020911401821B9E
:1002A0009109895E9E4F64E041E0ABC08C3069F4F7
:1002B00080911401882309F0C5C08091CB01E82FFB
:1002C000F0E0E95EFE4F9DE479C08D3089F48091C5
:1002D000CB0190E020911401821B9109895E9E4F11
:1002E00063E041E00E9408048091CB018B5FA5C0D0
:1002F0008E3009F0A7C08091CB0190E020911401CD
:10030000821B9109895E9E4F64E00E94DD0380910B
:10031000CB018C5F92C08091CD01813051F420914E
:100320001401222309F07BC05C9A8BB18BB980E069
:1003300008958330C1F420911401222311F45C9AB2
:1003400001C05A9A8BB18BB98091CB0190E0821B8E
:100350009109895E9E4F64E044E00E940804809108
:10036000CB01875F6AC0843069F4809114018823CF
:1003700009F068C08091CB01E82FF0E0E95EFE4F04
:100380009EE41CC0853061F48091CB0190E0209107
:100390001401821B9109895E9E4F65E044E048C0CC
:1003A000863079F480911401882309F04BC0809144
:1003B000CB01E82FF0E0E95EFE4F95E490838F5F7C
:1003C0003FC0873089F48091CB0190E020911401E7
:1003D000821B9109895E9E4F64E042E00E940804FE
:1003E0008091CB01895F29C0883061F58091CB0174
:1003F00090E020911401821B9109895E9E4F63E079
:1004000042E00E9408048091CB018A5F16C080916F
:10041000CD018130B9F4209114012223A9F08091FB
:10042000CB0190E0821B9109895E9E4F66E043E01C
:100430000E9408048091CB01865F90911401891B72
:100440008093CB0181E0089580E00895EF92FF92C0
:100450000F931F938AB18C6F8AB98BB183708BB95C
:100460000E9485000E94530081E0809313010E9446
:100470005F0010921601789492E0F92E11E083E06B
:10048000E82E0DE0809113018823C9F080911501B9
:100490008823A9F0809112018A3578F4E82FF0E0E2
:1004A000EF58FE4FE081EE2341F0E093C6008F5FEE
:1004B000809312011092130102C00E945300809198
:1004C00016018130F9F0813030F0823009F458C0E3
:1004D0008330C1F6BFC080911001882399F2109239
:1004E00010019091CC01943269F68091CB01E82FF4
:1004F000F0E0E95EFE4F90838F5F8093CB01109315
:100500001601C0CF80911001882309F4BBCF10924F
:1005100010019091CC01943209F481C08091CB01FB
:100520008A3508F07CC09C3211F09A3269F40E943E
:10053000BA00882309F473C08091CD018F5F809346
:10054000CD011092140105C0809114018F5F80933A
:1005500014018091CB019091CC01E82FF0E0E95E8D
:10056000FE4F90838F5F8093CB019A3219F4F09203
:10057000160188CF8091CE0189278093CE0182CF4A
:1005800080911001882309F47DCF10921001909181
:10059000CC01943209F443C09A3209F440C020914E
:1005A000CB012A35E0F59D30E9F59091110180915C
:1005B000CE019817A1F530E091E0A22FB0E0AD0197
:1005C0004150504005C0E95EFE4F808138279F5F53
:1005D000E92FF0E0E417F507B4F3A95EBE4FE32F6F
:1005E000E295EF70F0E0E050FF4F80818C93922F06
:1005F0009F5FA92FB0E0A95EBE4FE32FF0E0EF7040
:10060000F070E050FF4F80818C939F5FE92FF0E006
:10061000E95EFE4F00839F5F9093CB0133CF0E9432
:100620005F0030CF9A3059F4E22FF0E0E95EFE4FE0
:1006300090832F5F2093CB01E092160123CF96FD8C
:100640009750809111018295807F9F70982B909395
:10065000110118CF809115018823A9F420E030E022
:10066000F901EF58FE4FD901A95EBE4F8C918083EE
:100670002F5F3F4F2A35310599F7109212011093E1
:1006800015010E945F008BB11BB88BB18BB9FACEFC
:10069000DC01EC9180E005C08F5FFD01E80FF11DEA
:1006A000E081EE23C9F70895DC01EC9180E005C0FC
:1006B0008F5FFD01E80FF11DE081EE3211F0EE23B6
:1006C000B9F70895DC01EC9120E080E090E00CC0E7
:1006D000222311F08F5F03C0EE3209F421E09F5F07
:1006E000FD01E90FF11DE081EE2391F70895CF930D
:1006F000DF93242F261BC22FD0E0242F332727FD82
:100700003095F901EC1BFD0BE80FF91FDC01A20F7E
:10071000B31F60E070E050E30EC0CB01820F931F67
:100720008C179D071CF080818C9301C05C933197DE
:10073000615070401197842F860F87FFEECFDF91B5
:10074000CF910895CF93DF93EC01641BDC01A60FDA
:10075000B11D20E030E050E007C0FE01E20FF31FC2
:100760008D9180832F5F3F4F42175307B4F7DF917E
:10077000CF910895CF93DF93EC01772767FD7095B4
:10078000DC01A60FB71F20E030E0E42FF0E040E3EB
:1007900003C04D932F5F3F4FC901860F971F8E17E0
:1007A0009F07BCF3EC0FFD1F1082DF91CF910895DE
:1007B000FC01E40FF11D10820895CF93DF93DC015B
:1007C000462FEC9160E005C06F5FFD01E60FF11D63
:1007D000E081EE23C9F76417C1F0641720F4CD015E
:1007E0000E94770312C0641BED01C60FD11D20E0EB
:1007F00030E050E007C0FD01E20FF31F89918083D4
:100800002F5F3F4F42175307B4F7DF91CF91089501
:10081000FF920F931F93CF93DF93EC01F42EE881A7
:1008200000E005C00F5FFE01E00FF11DE081EE2347
:10083000C9F7002321F48EE28883198201E0E88160
:1008400080E005C08F5FFE01E80FF11DE081EE3210
:1008500011F0EE23B9F78617F9F0102F160F181BB9
:10086000861730F4CE01602F412F0E94770313C00A
:10087000011BDE01A00FB11D20E030E0412F50E050
:1008800007C0FE01E20FF31F8D9180832F5F3F4F62
:1008900042175307B4F7012FCE010E9462038F1550
:1008A00011F1902F9F0D981B8F15D0F4602F772793
:1008B00067FD7095DE01A60FB71F20E030E0E92F3D
:1008C000F0E040E303C04D932F5F3F4FC901860F17
:1008D000971F8E179F07BCF3EC0FFD1F108203C0FC
:1008E000C90FD11D1882DF91CF911F910F91FF90F9
:0608F0000895F894FFCF0B
:1008F6003031323334353637383941424344454650
:00000001FF
