:100000000C944A000C9467000C9467000C946700F1
:100010000C9467000C9467000C9467000C946700C4
:100020000C9467000C9467000C9467000C946700B4
:100030000C9467000C9467000C9467000C946700A4
:100040000C9418040C9467000C94BD000C94CD0023
:100050000C9467000C9467000C9467000C94670084
:100060000C9467000C9467002C0232023A02DE0204
:10007000460225035202620270027A0288027A0264
:100080009202A302C0022503C6023A02DE02460221
:10009000E802F90211241FBECFEFD8E0DEBFCDBFCA
:1000A00011E0A0E0B1E0EAE4F9E002C005900D92B1
:1000B000A031B107D9F721E0A0E1B1E001C01D9264
:1000C000A83DB207E1F70E9409040C94A3040C9424
:1000D0000000E2E1F1E0119281E0EC36F807D9F797
:1000E00010921101109210010895E1E7F1E01192D0
:1000F00081E0EB3CF807D9F71092700110926D0186
:1001000010926C011092CD011092CC011092CB0193
:1001100010926E011092CE010895E1E7F1E0A2E1A4
:10012000B1E081918D9381E0EB3CF807D1F7089520
:100130001092C50087E68093C400E2ECF0E0808175
:1001400086608083E1ECF0E080818861808380813B
:100150008069808308958AB18C6F8AB98BB183706E
:100160008BB90E9498000E9469000E94750010924D
:100170006F011092CE01789408951F920F920FB6DE
:100180000F9211248F938091C60080936F018F91FD
:100190000F900FBE0F901F9018951F920F920FB6E1
:1001A0000F9211248F93EF93FF93E0911101F0E0F0
:1001B000EE5EFE4F8081882341F08093C6008091DF
:1001C00011018F5F8093110107C08091C1008F7D65
:1001D0008093C10010921001FF91EF918F910F90C9
:1001E0000FBE0F901F9018959C01F9012F5F3F4F94
:1001F00090819111FACF9E2F981B892F0895FC01B1
:10020000908180E09E3241F0992331F08F5FDF01D1
:10021000A80FB11D9C91F6CF0895FC01208130E01C
:1002200080E090E0222379F0992319F08F5F91E02C
:1002300004C091E02E3209F090E03F5FDF01A30F90
:10024000B11D2C91EFCF0895242F261B30E050E3F1
:1002500047FD14C0E42FFF27E7FDF095DC01AE0F4A
:10026000BF1FE217F3073CF0E21BF30BE80FF91F87
:1002700060816C9301C05C934150EACF0895CF93A5
:10028000DF93641BA0E050E070E02A2F332727FDA6
:1002900030954217530754F0EC01C20FD31FFE01F3
:1002A000E60FF71FE081E883AF5FEFCFDF91CF91DB
:1002B000089550E070E3262F332727FD3095FC0189
:1002C000241735072CF4E20FF31F70836F5FF3CF11
:1002D000E40FF51F108208950F931F93CF93DF93C0
:1002E0001F92CDB7DEB78C0169830E94F400682F9E
:1002F0004981841789F0C801641738F40F90DF91A1
:10030000CF911F910F910C9424010F90DF91CF9109
:100310001F910F910C943F010F90DF91CF911F918E
:100320000F910895CF92DF92FF920F931F93CF9377
:10033000DF931F92CDB7DEB76C01F62E042F0E941B
:10034000F400682F811105C08EE2F60180831182CE
:1003500061E0C60169830E94FF0069818F1571F019
:10036000162F1F0D181B412F8F1520F4C6010E9458
:10037000240103C0C6010E943F01612FC6016983A9
:100380000E940D0169818017A1F0462F400F481B84
:10039000801758F4C6010F90DF91CF911F910F91F4
:1003A000FF90DF90CF900C945901F601E40FF11DFE
:1003B00010820F90DF91CF911F910F91FF90DF90EE
:1003C000CF9008958091CD018130C9F138F082300D
:1003D00009F4C9C0833009F41DC137C1809174018B
:1003E000873471F480917501873409F030C18091B0
:1003F0007601813409F02BC181E08093CD0108950D
:10040000823561F4809175018D3409F020C18091AD
:100410007601833409F01BC182E00EC08A3509F0F1
:1004200016C180917501843409F011C18091760163
:10043000813409F00CC183E08093CD0106C1809125
:10044000CC0190E0FC013197EE30F10508F0FDC0E1
:10045000EC5CFF4F0C949D042091CB012111E2C074
:100460005D9AF5C08091CB01811102C05D9A95C063
:100470005F9A93C08091CB018111E7C08091700198
:10048000E82FF0E0EF58FE4F9EE43FC08091CB0193
:100490008111DBC080917001E82FF0E0EF58FE4F32
:1004A00095E433C08091700190E02091CB01821BD4
:1004B000910962E08F589E4F0E946C0180917001FB
:1004C0008E5FBEC08091700190E02091CB01821BB5
:1004D000910941E062E08F589E4F0E9492013FC017
:1004E0008091700190E02091CB01821B910941E045
:1004F00065E077C08091CB018111A7C08091700128
:10050000E82FF0E0EF58FE4F9DE490838F5F9BC093
:100510008091700190E02091CB01821B910941E014
:1005200064E070C08091700190E02091CB01821B4B
:10053000910941E063E08F589E4F0E9492018091A3
:1005400070018B5F7DC08091700190E02091CB01A4
:10055000821B910964E08F589E4F0E946C0180912C
:1005600070018C5F6DC08091CC0190E0FC013197EF
:10057000E830F10508F069C0EE5BFF4F0C949D0474
:100580002091CB0121114EC05A9A61C08091CB01BC
:10059000811102C05A9A01C05C9A8091700190E06A
:1005A0002091CB01821B910944E064E08F589E4F5B
:1005B0000E94920180917001875F42C0809170011A
:1005C00090E02091CB01821B910944E065E031C0AD
:1005D0008091700190E02091CB01821B910942E053
:1005E00064E08F589E4F0E94920180917001895F54
:1005F00027C08091700190E02091CB01821B91096E
:1006000042E063E08F589E4F0E94920180917001FA
:100610008A5F16C08091CC018130B9F42091CB0162
:100620002223A9F08091700190E0821B910943E0A0
:1006300066E08F589E4F0E94920180917001865F04
:100640009091CB01891B8093700181E0089580E037
:100650000895D2E0C1E013E00DE080916F0188239E
:1006600031F080916F0180936E0110926F01809143
:10067000CE018130D1F038F0823009F44FC08330A0
:1006800009F4B1C0EACF90916E01943209F0A8C08C
:1006900080917001E82FF0E0EF58FE4F90838F5F5C
:1006A00080937001C093CE019BC080916E0188231E
:1006B000A1F2843221F0909170019A3518F00E94D5
:1006C0007500CBCF8C3211F08A3261F40E94E201C6
:1006D0008823A9F38091CC018F5F8093CC01109285
:1006E000CB0105C08091CB018F5F8093CB018091BE
:1006F000700190916E01E82FF0E0EF58FE4F90836B
:100700008F5F809370019A3219F4D093CE0168C044
:1007100080916D01892780936D0162C080916E0187
:10072000882309F49ACF843251F28A3241F26091DF
:1007300070016A3520F68D30E1F590916C01809161
:100740006D01981333C071E0A0E0862F90E0AC01FA
:1007500041505109272F30E0241735073CF4F901A7
:10076000EF58FE4F2081A2277F5FF4CF8F589E4F16
:10077000EA2FE295EF70F0E0E050FF4F2081FC019E
:100780002083E1E0E60FF0E0EF58FE4FAF70B0E0FD
:10079000A050BF4F8C918083E2E0E60FF0E0EF586D
:1007A000FE4F00836D5F609370011AC00E94750058
:1007B00017C08A3059F4E62FF0E0EF58FE4F8083DF
:1007C0006F5F609370011093CE010AC086FD875061
:1007D0008F7090916C019295907F892B80936C0122
:1007E00010926E013ACF80911001811136CF0E9494
:1007F00069000E948D00C09310018091C100806249
:100800008093C1000E9475008BB183708BB925CF96
:1008100008950E9462040E9408040E94AB00C0E098
:10082000D0E00E9429032097E1F30E940000F9CF55
:100830001F920F920FB60F9211242F933F938F9315
:100840009F93AF93BF938091D0019091D101A091DC
:10085000D201B091D3013091CF0123E0230F2D3786
:1008600020F40196A11DB11D05C026E8230F0296B4
:10087000A11DB11D2093CF018093D0019093D10190
:10088000A093D201B093D3018091D4019091D5016E
:10089000A091D601B091D7010196A11DB11D809301
:1008A000D4019093D501A093D601B093D701BF9105
:1008B000AF919F918F913F912F910F900FBE0F900D
:1008C0001F901895789484B5826084BD84B581604A
:1008D00084BD85B5826085BD85B5816085BDEEE648
:1008E000F0E0808181608083E1E8F0E01082808127
:1008F00082608083808181608083E0E8F0E0808195
:1009000081608083E1EBF0E0808184608083E0EBB4
:10091000F0E0808181608083EAE7F0E0808184609C
:1009200080838081826080838081816080838081F8
:10093000806880831092C1000895EE0FFF1F05901C
:0A094000F491E02D0994F894FFCF24
:10094A0030313233343536373839414243444546FB
:00000001FF
