:100000000C9434000C9451000C9451000C94510049
:100010000C9451000C9451000C9451000C9451001C
:100020000C9451000C9451000C9451000C9451000C
:100030000C9451000C9451000C9451000C945100FC
:100040000C9451000C9451000C9493000C94A60055
:100050000C9451000C9451000C9451000C945100DC
:100060000C9451000C94510011241FBECFEFD8E026
:10007000DEBFCDBF11E0A0E0B1E0EEE2F8E002C0EB
:1000800005900D92A031B107D9F721E0A0E1B1E0D0
:1000900001C01D92A03DB207E1F70E940B030C9432
:1000A00015040C940000E3E1F1E0119281E0ED36DB
:1000B000F807D9F710921201109211010895E2E7A2
:1000C000F1E0119281E0EC3CF807D9F71092710150
:1000D00010926E0110926D011092CE011092CD011E
:1000E0001092CC011092CF010895E2E7F1E0A3E174
:1000F000B1E081918D9381E0EC3CF807D1F7089550
:100100001092C50087E68093C400E2ECF0E08081A5
:1001100086608083E1ECF0E080818069808380816B
:100120008862808308951F920F920FB60F92112458
:100130008F938091C60080936F0181E0809370015E
:100140008F910F900FBE0F901F9018951F920F92D6
:100150000FB60F9211248F9381E0809310018F913D
:100160000F900FBE0F901F901895FC01908180E0BA
:10017000992331F08F5FDF01A80FB11D9C91F8CF5B
:100180000895FC01908180E09E3241F0992331F086
:100190008F5FDF01A80FB11D9C91F6CF0895FC0180
:1001A000208130E080E090E0222379F0992319F05B
:1001B0008F5F91E004C091E02E3209F090E03F5F44
:1001C000DF01A30FB11D2C91EFCF0895242F261B23
:1001D00030E050E347FD14C0E42FFF27E7FDF09522
:1001E000DC01AE0FBF1FE217F3073CF0E21BF30B7D
:1001F000E80FF91F60816C9301C05C934150EACF16
:100200000895CF93DF93641BA0E050E070E02A2FA5
:10021000332727FD30954217530754F0EC01C20FE6
:10022000D31FFE01E60FF71FE081E883AF5FEFCF3A
:10023000DF91CF91089550E070E3262F332727FDFB
:100240003095FC01241735072CF4E20FF31F70835F
:100250006F5FF3CFE40FF51F108208950F931F9384
:10026000CF93DF931F92CDB7DEB78C0169830E94D5
:10027000B500682F4981841789F0C801641738F4E4
:100280000F90DF91CF911F910F910C94E6000F908A
:10029000DF91CF911F910F910C9401010F90DF918D
:1002A000CF911F910F910895CF92DF92FF920F93FC
:1002B0001F93CF93DF931F92CDB7DEB76C01F62E5D
:1002C000042F0E94B500682F811105C08EE2F6014F
:1002D0008083118261E0C60169830E94C100698147
:1002E0008F1571F0162F1F0D181B412F8F1520F43D
:1002F000C6010E94E60003C0C6010E940101612FF1
:10030000C60169830E94CF0069818017A1F0462F42
:10031000400F481B801758F4C6010F90DF91CF9112
:100320001F910F91FF90DF90CF900C941B01F6016D
:10033000E40FF11D10820F90DF91CF911F910F916B
:10034000FF90DF90CF9008958091CE018130C9F168
:1003500038F0823009F4E6C0833009F43DC157C15A
:1003600080917501873471F480917601873409F0AA
:1003700050C180917701813409F04BC181E08093B5
:10038000CE010895823561F4809176018D3409F0B3
:1003900040C180917701833409F03BC182E00EC0F7
:1003A0008A3509F036C180917601843409F031C173
:1003B00080917701813409F02CC183E08093CE01D4
:1003C00026C18091CD01813039F42091CC012111D9
:1003D0000BC18BB18062B0C0823051F48091CC01EE
:1003E000811103C08BB18062B5C08BB18068B2C08F
:1003F000833061F48091CC01811109C18091710138
:10040000E82FF0E0EE58FE4F9EE455C0843051F4E2
:100410008091710190E02091CC01821B910944E010
:1004200065E0E9C0853061F48091CC018111EFC0B5
:1004300080917101E82FF0E0EE58FE4F95E43BC04B
:10044000873081F48091710190E02091CC01821B72
:10045000910962E08E589E4F0E942E018091710199
:100460008E5FD0C0883071F48091710190E020914E
:10047000CC01821B910941E062E08E589E4F0E94A0
:1004800054014CC0893051F48091710190E0209169
:10049000CC01821B910941E065E083C08A3071F490
:1004A0008091CC018111B3C080917101E82FF0E0FF
:1004B000EE58FE4F9DE490838F5FA7C08B3051F4C0
:1004C0008091710190E02091CC01821B910941E063
:1004D00064E07AC08C3021F38D3089F48091710111
:1004E00090E02091CC01821B910941E063E08E589D
:1004F0009E4F0E945401809171018B5F83C08E30AA
:1005000009F085C08091710190E02091CC01821B9F
:10051000910964E08E589E4F0E942E0180917101D6
:100520008C5F70C08091CD01813049F42091CC0165
:1005300021115AC08BB184608BB98BB96AC08330EA
:10054000E1F48091CC01811103C08BB1846002C0C1
:100550008BB180618BB98BB98091710190E0209152
:10056000CC01821B910944E064E08E589E4F0E94AA
:10057000540180917101875F45C0843009F43ACFFE
:10058000853009F445CF863009F44ECF873089F4A1
:100590008091710190E02091CC01821B910942E091
:1005A00064E08E589E4F0E94540180917101895FD2
:1005B00029C0883061F58091710190E02091CC01D3
:1005C000821B910942E063E08E589E4F0E945401C5
:1005D000809171018A5F16C08091CD018130B9F49C
:1005E0002091CC012223A9F08091710190E0821B1F
:1005F000910943E066E08E589E4F0E94540180911D
:100600007101865F9091CC01891B8093710181E01B
:10061000089580E008958AB18C6F8AB98BB1837098
:100620008BB90E9480000E94530081E080931001EA
:100630000E945F001092CF017894D2E0C1E013E0F5
:100640000DE0809110018823D1F080911101882361
:10065000B1F0E0911201EA3580F4F0E0ED5EFE4F7A
:100660008081882351F08093C600809112018F5FB2
:10067000809312011092100102C00E9453008091D9
:10068000CF018130F9F038F0823009F459C083305D
:1006900009F4BBC0D6CF80917001882391F21092EB
:1006A000700190916F01943261F680917101E82F91
:1006B000F0E0EE58FE4F90838F5F80937101C093FE
:1006C000CF01BFCF80917001882309F4BACF109277
:1006D000700180916F01843221F0909171019A35FF
:1006E00018F00E945F00ADCF8C3211F08A3261F4B5
:1006F0000E94A4018823A9F38091CD018F5F80938C
:10070000CD011092CC0105C08091CC018F5F809308
:10071000CC018091710190916F01E82FF0E0EE58CB
:10072000FE4F90838F5F809371019A3219F4D093BA
:10073000CF0187CF80916E01892780936E0181CF91
:1007400080917001882309F47CCF10927001809110
:100750006F01843231F28A3221F2609171016A357F
:1007600008F0BFCF8D30C9F590916D0180916E0179
:100770009813B7CF71E0A0E0862F90E0AC01415014
:100780005109272F30E0241735073CF4F901EE58C2
:10079000FE4F2081A2277F5FF4CF8E589E4FEA2F15
:1007A000E295EF70F0E0E050FF4F2081FC012083E4
:1007B000E1E0E60FF0E0EE58FE4FAF70B0E0A05081
:1007C000BF4F8C918083E2E0E60FF0E0EE58FE4FE1
:1007D00000836D5F6093710134CF8A3059F4E62F46
:1007E000F0E0EE58FE4F80836F5F609371011093CD
:1007F000CF0127CF86FD87508F7090916D01929524
:10080000907F892B80936D011CCF80911101811104
:1008100008C00E94750010921201C09311010E943D
:0E0820005F008BB11BB81BB80CCFF894FFCF54
:10082E003031323334353637383941424344454618
:00000001FF
