:100000000C944A000C9467000C9467000C946700F1
:100010000C9467000C9467000C9467000C946700C4
:100020000C9467000C9467000C9467000C946700B4
:100030000C9467000C9467000C9467000C946700A4
:100040000C941F040C9467000C94BC000C94670083
:100050000C94CF000C9467000C9467000C9467001C
:100060000C9467000C94670016021C022402C8025C
:1000700030020F033C024C025A0264027202640214
:100080007C028D02AA020F03B0022402C8023002D1
:10009000D202E30211241FBECFEFD8E0DEBFCDBFF6
:1000A00011E0A0E0B1E0E8E5F9E002C005900D92B2
:1000B000A031B107D9F721E0A0E1B1E001C01D9264
:1000C000A93DB207E1F70E9410040C94AA040C9415
:1000D0000000E3E1F1E0119281E0ED36F807D9F795
:1000E00010921201109211010895E2E7F1E01192CD
:1000F00081E0EC3CF807D9F71092710110926E0183
:1001000010926D011092CE011092CD011092CC018F
:100110001092CF010895E2E7F1E0A3E1B1E081910F
:100120008D9381E0EC3CF807D1F708951092C5005B
:1001300087E68093C400E2ECF0E0808186608083F3
:10014000E1ECF0E080818069808380818864808335
:1001500008958AB18C6F8AB98BB183708BB90E9474
:1001600096000E94690081E0809310010E94750052
:100170001092CF01789408951F920F920FB60F92AC
:1001800011248F938091C60080936F0181E080934A
:1001900070018F910F900FBE0F901F9018951F92B6
:1001A0000F920FB60F9211248F9381E0809310016C
:1001B0008F910F900FBE0F901F9018959C01F90121
:1001C0002F5F3F4F90819111FACF9E2F981B892F5F
:1001D0000895FC01908180E09E3241F0992331F036
:1001E0008F5FDF01A80FB11D9C91F6CF0895FC0130
:1001F000208130E080E090E0222379F0992319F00B
:100200008F5F91E004C091E02E3209F090E03F5FF3
:10021000DF01A30FB11D2C91EFCF0895242F261BD2
:1002200030E050E347FD14C0E42FFF27E7FDF095D1
:10023000DC01AE0FBF1FE217F3073CF0E21BF30B2C
:10024000E80FF91F60816C9301C05C934150EACFC5
:100250000895CF93DF93641BA0E050E070E02A2F55
:10026000332727FD30954217530754F0EC01C20F96
:10027000D31FFE01E60FF71FE081E883AF5FEFCFEA
:10028000DF91CF91089550E070E3262F332727FDAB
:100290003095FC01241735072CF4E20FF31F70830F
:1002A0006F5FF3CFE40FF51F108208950F931F9334
:1002B000CF93DF931F92CDB7DEB78C0169830E9485
:1002C000DE00682F4981841789F0C801641738F46B
:1002D0000F90DF91CF911F910F910C940E010F9011
:1002E000DF91CF911F910F910C9429010F90DF9115
:1002F000CF911F910F910895CF92DF92FF920F93AC
:100300001F93CF93DF931F92CDB7DEB76C01F62E0C
:10031000042F0E94DE00682F811105C08EE2F601D5
:100320008083118261E0C60169830E94E9006981CE
:100330008F1571F0162F1F0D181B412F8F1520F4EC
:10034000C6010E940E0103C0C6010E942901612F4F
:10035000C60169830E94F70069818017A1F0462FCA
:10036000400F481B801758F4C6010F90DF91CF91C2
:100370001F910F91FF90DF90CF900C944301F601F5
:10038000E40FF11D10820F90DF91CF911F910F911B
:10039000FF90DF90CF9008958091CE018130C9F118
:1003A00038F0823009F4C9C0833009F41DC137C167
:1003B00080917501873471F480917601873409F05A
:1003C00030C180917701813409F02BC181E08093A5
:1003D000CE010895823561F4809176018D3409F063
:1003E00020C180917701833409F01BC182E00EC0E7
:1003F0008A3509F016C180917601843409F011C163
:1004000080917701813409F00CC183E08093CE01A3
:1004100006C18091CD0190E0FC013197EE30F105ED
:1004200008F0FDC0EC5CFF4F0C94A4042091CC01BB
:100430002111E2C05D9AF5C08091CC01811102C00A
:100440005D9A95C05F9A93C08091CC018111E7C0FD
:1004500080917101E82FF0E0EE58FE4F9EE43FC01E
:100460008091CC018111DBC080917101E82FF0E017
:10047000EE58FE4F95E433C08091710190E02091D9
:10048000CC01821B910962E08E589E4F0E9456015A
:10049000809171018E5FBEC08091710190E02091CA
:1004A000CC01821B910941E062E08E589E4F0E9470
:1004B0007C013FC08091710190E02091CC01821BB2
:1004C000910941E065E077C08091CC018111A7C01E
:1004D00080917101E82FF0E0EE58FE4F9DE490838B
:1004E0008F5F9BC08091710190E02091CC01821BB5
:1004F000910941E064E070C08091710190E0209129
:10050000CC01821B910941E063E08E589E4F0E940E
:100510007C01809171018B5F7DC08091710190E0C1
:100520002091CC01821B910964E08E589E4F0E945D
:100530005601809171018C5F6DC08091CD0190E07A
:10054000FC013197E830F10508F069C0EE5BFF4F20
:100550000C94A4042091CC0121114EC05A9A61C080
:100560008091CC01811102C05A9A01C05C9A80919D
:10057000710190E02091CC01821B910944E064E07C
:100580008E589E4F0E947C0180917101875F42C00E
:100590008091710190E02091CC01821B910944E08F
:1005A00065E031C08091710190E02091CC01821B07
:1005B000910942E064E08E589E4F0E947C01809138
:1005C0007101895F27C08091710190E02091CC0179
:1005D000821B910942E063E08E589E4F0E947C018D
:1005E000809171018A5F16C08091CD018130B9F48C
:1005F0002091CC012223A9F08091710190E0821B0F
:10060000910943E066E08E589E4F0E947C018091E4
:100610007101865F9091CC01891B8093710181E00B
:10062000089580E00895CF93DF938091100188238F
:10063000D1F0809111018823B1F0E0911201EA35E7
:1006400080F4F0E0ED5EFE4F8081882351F08093CE
:10065000C600809112018F5F8093120110921001E9
:1006600002C00E9469008091CF01813001F138F011
:10067000823009F45AC0833009F4BEC0CDC08091E5
:100680007001882309F4C8C01092700190916F0125
:10069000943209F0C1C080917101E82FF0E0EE586A
:1006A000FE4F90838F5F8093710181E097C08091AE
:1006B0007001882309F4B0C01092700180916F011D
:1006C000843221F0909171019A3520F0DF91CF9121
:1006D0000C9475008C3211F08A3261F40E94CC01C6
:1006E0008823A1F38091CD018F5F8093CD0110927B
:1006F000CC0105C08091CC018F5F8093CC018091AB
:10070000710190916F01E82FF0E0EE58FE4F908359
:100710008F5F809371019A3211F482E05FC0809103
:100720006E01892780936E0177C0809170018823C4
:1007300009F472C01092700180916F01843231F21D
:100740008A3221F2609171016A3508F0BFCF8D3095
:10075000D1F590916D0180916E019813B7CF71E042
:10076000A0E0862F90E0AC0141505109272F30E0E6
:10077000241735073CF4F901EE58FE4F2081A227DB
:100780007F5FF4CFEC01CE58DE4FEA2FE295EF7099
:10079000F0E0E050FF4F20812883E1E0E60FF0E039
:1007A000EE58FE4FAF70B0E0A050BF4F8C918083E9
:1007B000E2E0E60FF0E0EE58FE4F8DE080836D5FE3
:1007C0006093710129C08A3061F4E62FF0E0EE58A1
:1007D000FE4F80836F5F6093710183E08093CF0150
:1007E0001BC086FD87508F7090916D019295907F10
:1007F000892B80936D0110C080911101811109C076
:100800000E948B001092120181E0809311010E94DE
:1008100075008BB183708BB9DF91CF9108950895E6
:100820000E9469040E940F040E94A900C0E0D0E069
:100830000E9413032097E1F30E940000F9CF1F925A
:100840000F920FB60F9211242F933F938F939F9384
:10085000AF93BF938091D1019091D201A091D30128
:10086000B091D4013091D00123E0230F2D3720F433
:100870000196A11DB11D05C026E8230F0296A11DFA
:10088000B11D2093D0018093D1019093D201A09308
:10089000D301B093D4018091D5019091D601A0915C
:1008A000D701B091D8010196A11DB11D8093D5014A
:1008B0009093D601A093D701B093D801BF91AF9187
:1008C0009F918F913F912F910F900FBE0F901F908E
:1008D0001895789484B5826084BD84B5816084BDA8
:1008E00085B5826085BD85B5816085BDEEE6F0E0A9
:1008F000808181608083E1E8F0E010828081826005
:100900008083808181608083E0E8F0E08081816085
:100910008083E1EBF0E0808184608083E0EBF0E0B5
:10092000808181608083EAE7F0E080818460808359
:100930008081826080838081816080838081806803
:1009400080831092C1000895EE0FFF1F0590F4916F
:08095000E02D0994F894FFCF9B
:1009580030313233343536373839414243444546ED
:00000001FF
